:020000040000FA
:10000000680F0020C1000000C12F00001D28000063
:10001000FFFFFFFFFFFFFFFFFFFFFFFFFFFFFFFFF0
:10002000FFFFFFFFFFFFFFFFFFFFFFFF6533000044
:10003000FFFFFFFFFFFFFFFFAD3100000D360000A7
:1000400035010000350100003501000035010000D8
:100050003501000035010000CD220000350100000F
:10006000E9180000FFFFFFFF35010000E127000055
:10007000992700003501000035010000FFFFFFFF58
:10008000FFFFFFFF350100003501000035010000D2
:100090003501000035010000350100003501000088
:1000A0003501000035010000350100003501000078
:1000B0003501000035010000350100003501000068
:1000C0002048804720488047204800472048016951
:1000D000002908D14169002905D18169002902D18F
:1000E000C169002909D01B48C1680901090D00290F
:1000F0000ED005290CD006290AD0BFF34F8F164821
:100100001649016016491548C860BFF34F8FFEE7D6
:10011000114801681148884200D0704711481249BF
:1001200001600D48114901607047FEE7FEE7FEE7F8
:10013000FEE7FEE7FEE700000D480E490C4A0E4BB5
:1001400070470000CD000000213600007D01000056
:100150000003084080010840000000200400FA0568
:1001600000ED00E0008108400100000000000000F8
:1001700068030020680F00206803002000F002F8E8
:1001800000F03EF80CA030C8083824182D18A246FC
:10019000671EAB4654465D46AC4201D100F030F8D4
:1001A0007E460F3E0FCCB6460126334200D0FB1AE6
:1001B000A246AB4633431847384D0000584D000067
:1001C000103A02D378C878C1FAD8520701D330C8A0
:1001D00030C101D504680C60704700000023002482
:1001E00000250026103A01D378C1FBD8520700D36E
:1001F00030C100D50B6070471FB51FBD10B510BDD5
:1002000001F0B4F91146FFF7F7FF03F043FE01F0E8
:10021000CCF903B4FFF7F2FF03BC01F009FA10B503
:10022000431E5C785B1C002CFBD105E00C78491C5C
:100230001C705B1C002C03D0521EF7D200211970D9
:1002400010BD01E004C0091F0429FBD28B0701D5B2
:100250000280801CC90700D00270704700290BD0B3
:10026000C30702D00270401C491E022904D3830731
:1002700002D50280801C891EE3E70022EEE70022FF
:10028000DFE7002203098B4273D3030A8B4258D362
:10029000030B8B423CD3030C8B4221D312E0034669
:1002A0000B437FD4002243088B4274D303098B4253
:1002B0005FD3030A8B4244D3030B8B4228D3030C36
:1002C0008B420DD3FF22090212BA030C8B4202D3D8
:1002D0001212090265D0030B8B4219D300E0090A00
:1002E000C30B8B4201D3CB03C01A5241830B8B4209
:1002F00001D38B03C01A5241430B8B4201D34B03F2
:10030000C01A5241030B8B4201D30B03C01A524156
:10031000C30A8B4201D3CB02C01A5241830A8B42DB
:1003200001D38B02C01A5241430A8B4201D34B02C4
:10033000C01A5241030A8B4201D30B02C01A524128
:10034000CDD2C3098B4201D3CB01C01A52418309DC
:100350008B4201D38B01C01A524143098B4201D316
:100360004B01C01A524103098B4201D30B01C01A41
:100370005241C3088B4201D3CB00C01A52418308BB
:100380008B4201D38B00C01A524143088B4201D3E8
:100390004B00C01A5241411A00D201465241104648
:1003A00070475DE0CA0F00D04942031000D34042BD
:1003B000534000229C4603098B422DD3030A8B42F3
:1003C00012D3FC22890112BA030A8B420CD3890191
:1003D00092118B4208D3890192118B4204D3890177
:1003E0003AD0921100E08909C3098B4201D3CB01B5
:1003F000C01A524183098B4201D38B01C01A52416A
:1004000043098B4201D34B01C01A524103098B426D
:1004100001D30B01C01A5241C3088B4201D3CB0058
:10042000C01A524183088B4201D38B00C01A52413B
:10043000D9D243088B4201D34B00C01A5241411A12
:1004400000D20146634652415B10104601D3404240
:10045000002B00D54942704763465B1000D34042F1
:1004600001B50020C046C04602BD704770477047C6
:100470000246C80FC00781434B0030B54B405B00BC
:100480009B0D20D01923DB06C91801231B059942B7
:1004900020DB0324A40704251346AB400BD3002B19
:1004A00004D1EB0613409B00E34204D4012464070B
:1004B000002312195941FF231B0599420BD2C90091
:1004C0000143500F09E0CB0204D501430803024366
:1004D00005D0054830BDFF21C905084330BD084699
:1004E00007210905884330BD0000C07FF0B50C46E8
:1004F000871A9C410D46861A9D4103D2C01BA1411B
:10050000D21963410D0D1F0DC94EEC1BAE435CD0DB
:100510007F057F0D0026002F51D02D05AC46A94345
:10052000DD020123ED0A1B051D4320231B1B24D4E0
:100530001746E740381871412F46E740CC199D40D7
:100540002818314661410C0D27D161449A4013D5DA
:100550000023401C594152000ED1400840000122A6
:100560004B005205D34207D305204007C14201D5B5
:10057000B04900E0B0493046F0BD6B00002A00D021
:1005800001229A181F23203C1B1B01D5002302E0E7
:10059000E540281871410C0DD7D001242405091914
:1005A000C407CD0740084908E40F28436144002CE4
:1005B000D5D00024401C61419A40D0D1CDE76A05D6
:1005C000520DD9D1C90FC907D5E79C4D4E0000285F
:1005D00001D0012400E0002434195F00002A01D07A
:1005E000012600E00026BE19954FAC420CD8AE4261
:1005F0000AD8B44206D001256D05EC42BCD01046A5
:100600001946F0BD9942FCD000203946F0BDF0B546
:100610001FB40C460F46811A9F412546861A9D41FC
:1006200006D20125ED076F40401ABC4152187B41AC
:10063000210D1E0D8D1BAC467D4D8D437ED0750565
:100640006D0D7CD00D05AE46AC431B031B0B794DE5
:1006500052429D41202366469B1B14D31746F74008
:10066000381800260090744160462F460741E4196F
:1006700000989D402818664116D4714671189A401A
:1006800025D5012320E093182A466A415200002B09
:1006900000D0521C1E23203E9B1B002B61DD3541E8
:1006A000EE1728186641E8D5001876415B1C9A4081
:1006B00000D3401C4B05F3181524E34010D3002B46
:1006C00052D071467118D30FC01802D3491C05B01F
:1006D000F0BD0123DB079A42F9D140084000F6E75C
:1006E00001225205B21801D1002853D00123CC0AAF
:1006F000DB029943891E002A08D1020C03D0020CA8
:100700000004103902E00246002020390023550B76
:1007100005D112020823550B01D152010D23550CAE
:1007200001D112011B1DD50C01D192009B1C150D8E
:1007300001D152005B1C2025EE1A01E02CE022E0E2
:100740000546F54015439840CA1AE1076918130594
:10075000C918002ABBDA032040070818C10FC907CF
:100760000FE071466118B2E7F107400808437110C5
:1007700071444A000CD001235B059A42A7D2C90FED
:10078000C9070020A3E74905490D26D1002001E053
:100790000028F4D100219AE7284D6600002801D0F6
:1007A000012100E0002171185F00002A01D001261C
:1007B00000E00026BE19224FA94210D8AE420ED842
:1007C000B14208D001256D05E94206D01946A802BC
:1007D000414010467BE79C4201D0214677E700204C
:1007E000394674E710B50C465C4005D50124E40792
:1007F0006340FFF70CFF10BDFFF778FE10BD30B46B
:100800000C465C4004D50124E407634030BC6DE62F
:1008100030BCFCE670B50124E40761400D465D4044
:1008200002D4FFF763FE70BD6340FFF7F0FE70BDBA
:10083000FF0700000000F0FF0000F07F0000E0FF75
:100840000000F87FF0B5F94D0C091E092C402E4030
:100850002F468BB0A7437DD0B543FCD0002E7AD075
:10086000002CFCD00D465D40ED0F2543AC1BFF2551
:10087000AD0464190894C502440DC9022143500D0A
:10088000DC0204430120C00701430443D20201916A
:10089000200C110C00958C46010423468B430A91D1
:1008A00061460904E24D8A430991010A7D444919D0
:1008B0008039097805464D4301266D18F605751BEC
:1008C0006943C90C640B891C4C436418B5012C1B8B
:1008D000250C2E04B4434C434D43210C691889095F
:1008E0000591009DE90701D00121C90704912C461B
:1008F00001996708CD072F434C08059DE10B4D4337
:100900002D0C29466646754302950D4645432E46F5
:10091000029D7D1BB44100950D465D4301942C0C56
:100920002F040D465543AE462D0C3D4302950394CE
:100930007546049C2D04641B049406D2029C039DFE
:10094000641C002675410395029401AC70CC009F95
:100950007D1B01E03EE162E1B4410904009507918D
:1009600001940599A4086143090C0C464443650BA6
:10097000E7040C4666467443A646640B3C43039565
:1009800002947446049DE4042C1B049406D2029C39
:10099000039D641C002675410395029401AC70CC44
:1009A000009F7D1BB44101940C465C430095650F8C
:1009B000E7000C465443A646640F3C43039502945B
:1009C0007446049DE4002C1B049406D2029C039DF3
:1009D000641C002675410395029401AC70CC009F05
:1009E0007D1BB441AE09AF06049DC900AD092F437C
:1009F000049DA406AD060495079D3443691807912C
:100A0000059DE10B4D432D0C294666467543029525
:100A10000D4645432E46029D7D1BB44100950D4673
:100A20005D4301942C0C2F040D465543AE462D0C0E
:100A30003D43029503947546049C2D04641B049465
:100A400006D2029C039D641C002675410395029406
:100A500001AC70CC009F7D1BB44101948C050694C1
:100A6000079C890A611800950791019C0599A408C3
:100A70006143090C0D464543680BEF040D4664467F
:100A800065436C0B3C43049FED047D1BAC4602D2D6
:100A90000025641C6841009E019D371B8541084666
:100AA000584301950C46460FC5005443600F284338
:100AB0006546E4002C1B02D20025401C6E41019DBE
:100AC0003F1AB5412846BD09800628438446A0093F
:100AD000BF064E020699A40676180743079D00201C
:100AE00068410A99079019430020099B00906046CD
:100AF000FF1913434041E20F64003A43A446044601
:100B0000D71A8C41A04203D90120009020463A46D2
:100B1000C70F941840416246D20F224364466400D6
:100B20000494009CBE466400D71AA446044602976B
:100B30008C417746002F01D1A04204D96046401C69
:100B40008446029A2046C40FA64694184041049A4F
:100B50000546D20F224364466400D31A8D41714684
:100B6000002901D1A84202D928461A46641C104324
:100B70000122002800D0164361020020079B89193A
:100B800004465C410223002C02DB491813466441F1
:100B9000089DCE0A2D145D194B056705E10A2C0549
:100BA0000D1908993E43C9076940002B08D09340AE
:100BB00006D30022761C5141002B01D17608760025
:100BC0001C4A002D43DB154241D0AA433FD030469A
:100BD0000BB0F0BD06180D464D41174C7642AC41A6
:100BE0001AD395181C465C41134A6D42A24113D397
:100BF000012252054C00D4420AD15C00D4420BD0F1
:100C00004B4002D592021143E2E749004908DFE771
:100C10005940C90FC90718E000200849D8E705481E
:100C200001420DD10342F7D0F2E700000000FF07B8
:100C3000FC4300000000F07F0000E0FF0000F87FB0
:100C4000114859400143C01241400020C0E7012330
:100C5000089A9B069A4205DC032252078918C90F9D
:100C6000C907B5E7052252078918074A1143D2126E
:100C70005140ADE770B515461C4602460B46284666
:100C80002146FFF7DFFD70BDFFFFFF7FF0B58B4C06
:100C90000F09254689B0BD437BD01D092646AE43CA
:100CA000FAD00E465E402740F60F3E43254071D0F5
:100CB00024012142FBD0FF24AD19A4042D1B039570
:100CC00001252D05DB02DB0AC9022B43C90A294392
:100CD0001E010901040F130F050121431701880BA1
:100CE000820391432D098C46A90B1E438A03954329
:100CF000B30B9A0396433F09BA0B9403A74302969A
:100D00002E467E430497B6464E19D7190C460196D7
:100D1000544305977E43371B7646BF1B3601B646C4
:100D2000BE0B361900967646BC043719009C01D3D9
:100D3000641C00946400002F01D001263443029EFD
:100D4000049F754366467E430496760034196E0010
:100D500034190094029C019E1C196643751BAE4613
:100D6000069465464519059C05956C43594375469F
:100D70000891691A0191049E01465143A41B0491F4
:100D8000611A009C0791E10605D061090122114317
:100D900002E072E06EE06109089D00272C0A2D0632
:100DA0006918049D7C412A0A2D066918019D62413B
:100DB000AC0DAD026D185441079A910D9202551970
:100DC0006141029A644658435443069B059A5A432C
:100DD000121A131B9A0E9B015B187A41010B000536
:100DE000C3185141220A200644195A419A4200D29E
:100DF000491C01204002814203D315230226F643F9
:100E000002E014230326F6432020C51AA940174602
:100E1000AF40DA400A4320460399D84009147318BA
:100E200019055118039A3843D2075140AC4009D0F4
:100E30000122944006D30022401C5141002C01D1D4
:100E4000400840001E4A934212D3012203989206A2
:100E5000904207DB0520400709181A480143C012D9
:100E6000414004E0032040070818C10FC9070020D3
:100E700009B0F0BD0020F107FAE705180C464C4117
:100E800011486D42A04115D394181A465A410E4894
:100E9000644290410ED301204A004005824209D3AA
:100EA0005A00824206D35940C90F084AC907002098
:100EB0001143DDE700200649DAE700000000FF07E4
:100EC000FE070000FFFFFF7F0000E0FF0000F07F53
:100ED0000000F87F0121C9050123411842001B06CB
:100EE000D3185B0E0AD0C1100722D206891840071A
:100EF0005242D14201D5520089187047090208D5E3
:100F00000146002A03D0C10FC907002070471046D0
:100F10007047420202D000200249704707210905AC
:100F20000143F4E70000F87FF0B5FF252D04C60962
:100F3000C209FF2704462E400137CB093E434840F3
:100F40002A402B400746002A6BD0002B69D0AA42CA
:100F500067D0AB4265D0002800DA32460125ED05A6
:100F600029432C4309022002090AD21A4B0C7F2480
:100F7000E31A434C000A7C44E35C7D2424041219E8
:100F800014145B00A218884201D3521C00E04000F8
:100F900049420C465C4324115C43DB016415E318B1
:100FA000040A5C43C502200D0C4644436419250A1B
:100FB0005D432303EC0C0D46654300030019EB1859
:100FC0004C42A34201D35B18401CD4052018002BCF
:100FD00007D05B00C91804D3401C002901D1400888
:100FE00040003F2189048A4209D3002A08DC110607
:100FF000090F04D0032149074018C00FC007F0BDF6
:1010000001224100120689187F2252069142F6D22F
:1010100005214907C84201D59010F0BDFF20C00549
:10102000F0BD002F00DA32461648AA4207D2AB4282
:1010300005D21902090E17D0F80FC007F0BDFF2521
:1010400063002D06AB42F9D84900A942F6D8AB425D
:1010500001D1A942F2D0A94201D1002101E06100F1
:101060004908D0050843F0BD1102090EFBD0FF204E
:101070000243D005F0BD0A460146104654E7000081
:10108000B23D00000000C07F10B501469E24000262
:10109000CA15A307002A02D01843002A04DBA21AAB
:1010A000002A0CDDD04010BD1206120E01D1400006
:1010B0004008A21A03D4D04040420028F3DDFF22AA
:1010C00048001206904201D9002010BDC817C04345
:1010D000584010BD0102C21504D00123DB0719439B
:1010E000002A0ADB9E239A1A02D40846D040704791
:1010F000FF2241001206914201D900207047C0171B
:10110000C04370471F22030C02D10F2200041CD0E1
:10111000030E01D10002083A030F01D10001121F92
:10112000830F01D18000921E002801DB4000521E77
:10113000D2055118021251181922904004D3491CAB
:10114000002801D14908490008467047C10FC90766
:1011500000D04042012292071143D3E701218907C1
:10116000D0E7000010B5FF22C30D134009D05A404C
:1011700007D0914205DA5C42A14202DDC905081898
:1011800010BDC40FE407002B06D0002A06D00029AA
:1011900002DBFF20C0050443204610BD4102FCD005
:1011A000004810BD0000C07F10B500F0EFF80068E7
:1011B00010BD10B5044600F0E9F8046010BD1F2210
:1011C000030C02D10F22000402D0030E03D004E06E
:1011D0000020014670470002083A030F01D10001C8
:1011E000121F830F01D18000921E002801DB4000F6
:1011F000521E120551184205C01241181046704780
:10120000C10FC90700D04042012292071143D6E71F
:1012100001218907D3E7000070B505464800440D59
:10122000124B0020002C0AD0634008D09A4206DA04
:101230006642B24203DD12054019514170BD002CD7
:1012400008D0002B09D0C90FC907002AF6DB084ACD
:10125000114370BDC90FC90770BD28460A0310436A
:1012600002D00020034970BD284670BDFF07000072
:101270000000F07F0000F87FF8B5064601270E4316
:10128000FF0509220546F41B12070D43D300F6198A
:10129000002D1CDB002E09DB002C24DB401A02D3BE
:1012A000EFF300800AE0EFF300800BE0F84234D463
:1012B000F94232D4401A03D3EFF30080904303E0A5
:1012C000EFF300809043184380F30088F8BD002EB0
:1012D00011DA002C07DA081A02D3EFF30080EDE7E9
:1012E000EFF30080EEE7001A02D3EFF30080E5E7AA
:1012F000EFF30080E6E70124450024066D42A54295
:101300000BD94D006D42A54207D9081A02D3EFF35D
:101310000080D3E7EFF30080D4E7024A00F004F83E
:10132000F8BD00000900100410B5FF231B0644009F
:101330009C421DD84C009C421AD80346124A0B43CB
:1013400007D4401A02D3EFF3008010BDEFF3008002
:1013500010BD081A06D2EFF3008001219043C9079F
:10136000084302E0EFF30080904380F3008810BD53
:101370000D231B041A4204D01146002000F00AF885
:1013800010BD00F0E7F810BD000000900048704765
:1013900004030020C80212D54803400F002804D0DF
:1013A000C803C043012188407047EFF3008000016B
:1013B000000903210907084380F3008870470020D3
:1013C00070470000F8B5224C4E00069DA6420AD890
:1013D000A64201D1002806D15E00A64203D8A6424B
:1013E0000AD1002A08D00D24240425422CD02946F5
:1013F0000020FFF7CFFFF8BD0C461C430CD49942E8
:1014000002D0EFF30080F8BD904202D0EFF30080ED
:10141000F8BDEFF30080F8BD09242407E5008B42F6
:1014200006D0EFF30080A043591A06D2284304E007
:10143000101A05D3EFF30080A04380F30088F8BDB5
:10144000EFF30080A043F1E7009500F0B7F8F8BD96
:101450000000E0FFF0B53D4B02460C461C4000206A
:10146000002C63D03A4D8B4366D000296BDB0B0D0B
:101470001D05A94301252D0529430124FD33E34022
:1014800001D392184941FF3381339C468B02940D5E
:101490000121234389074C42920200271B198C101B
:1014A0005D1A04D42D1B02D42B46650049199218ED
:1014B0005B416408F4D15C1A08D40125ED07EE17EE
:1014C0005519744102D42A462346491C94185B419D
:1014D000012292071D46E61B8D4106D4B61A8541AE
:1014E00003D42B46550034467F1924195B4152081A
:1014F000802AEFD1234300D0022338460A22D0406D
:1015000001D3012213438A0510436246890A12055A
:101510008918002B09D00122D34002D30022401C9D
:101520005141002B01D140084000F0BD0B03134393
:1015300007D0C90FC907F0BD0803104303D1002924
:1015400001DB1046F0BD00202946F0BD0000F07F11
:101550000000F87F10B5024800F03AF810BD000016
:101560000000C07F00487047040300207546FFF765
:10157000F9FFAE46050069465346C008C0008546DF
:1015800018B020B5FEF7D8FD60BC00274908B64664
:101590000026C0C5C0C5C0C5C0C5C0C5C0C5C0C582
:1015A000C0C5403D49008D46704710B50446C04651
:1015B000C0462046FEF72DFE10BD000010B50020ED
:1015C0000249029A00F004F810BD00000000F87F04
:1015D00010B50C461107090F092904D00A290AD0B1
:1015E00008290CD104E011460820FFF7D3FE06E0DD
:1015F000510606D501E0510601D50120C00721465C
:1016000010BDD10607D501010909CC084907000E14
:101610000006044309E0410F20024907000A014384
:10162000200E00061D22D14101430846E7E70000D5
:1016300001491820ABBEFEE726000200704780304B
:10164000C160704780220029016801D0114300E089
:1016500091430160704710B500200122120601235A
:10166000014601F0A5FD10BD10B504210348FFF7A8
:10167000E6FF03490120087010BD00000000014092
:101680000900002080308068084000D001207047A9
:10169000F1B5002582B000952E460195844F0024B7
:1016A0003C70032223461146824800F041F9002392
:1016B0001A4619467F4800F02CF9012200231146F2
:1016C0007C4800F026F9022200231146794800F0F8
:1016D00020F90121774800F041F9387800280ED12F
:1016E0007D273F010220641C02F08EF9BC4202D12A
:1016F000002003B0F0BD6E4800780028F2D06D489D
:10170000016B426B0905090D6D1800991205120D48
:10171000891800910199806B761C0005000D08184E
:101720000190052EBADB28463146FEF7AAFD044695
:1017300031460098FEF7A5FD009031460198FEF76E
:10174000A0FD01902046FFF709FD5B4903F0D8F9A1
:101750000746FFF7BFFB0022584BFFF75BF8044634
:101760000E465749384603F0CBF9FFF7B3FB224644
:101770003346FFF767F8FEF77BFE5149FFF7D4FBCE
:10178000FFF7A8FB02F0DCF900224E4BFFF75AF8F6
:101790004D4A4E4BFFF726F802460B4600204C49B7
:1017A000FFF750F8FEF764FEFFF794FB494A4A4BF7
:1017B000FFF725F8FEF75CFE3F21090603F030F93C
:1017C0004649474E884201D8B0420BDD4349884222
:1017D00001D9022100E00121029801730299002041
:1017E000086004E0029A00211173029908600098D1
:1017F000FFF7B4FC304903F083F90746FFF76AFBB3
:1018000000222E4BFFF706F804460D462C493846B9
:1018100003F076F9FFF75EFB22462B46FFF712F83E
:10182000FEF726FE2649FFF77FFBFFF753FB02F08A
:1018300087F90022234BFFF705F8234A234BFEF7D5
:10184000D1FF02460B4600202149FEF7FBFFFEF7C1
:101850000FFEFFF73FFB1F4A1F4BFEF7D0FFFEF7BF
:1018600007FE3F21090603F0DBF81C49884201D836
:10187000B0420ADD884201D9022100E0012102982C
:10188000417302990020486004E0029A00215173DC
:10189000029948600198FFF761FC074903F030F9AD
:1018A0001049FFF741FB02998860012003B0F0BDA9
:1018B00009000020000001400000203A0000044020
:1018C0000000204100DCAE4083DBB5DCE1796B3FFA
:1018D0000000F03F6666666666127140000020C236
:1018E0000000FA428C2EBA3D10B504210348FFF7E0
:1018F000C9FE012801D1FFF7B7FE10BD000001406D
:101900008030002A026801D00A4300E08A43026066
:101910007047930830B49B001B1858689207D40E88
:101920001F22A2409043A1400843586030BC70473A
:101930005B1E12021B04FF3A013A13430B4301687A
:10194000802211400B4303607047CA06D20E026723
:101950004909490141677047016270470029416F99
:1019600002D00122114301E0490849004167704754
:1019700010B40022072801D9012208389300064A32
:101980009B181A6880000F248440A24381401143B1
:10199000196010BC7047000000200240F0B5374BC2
:1019A000C000C61893B048080E9010010C9088082B
:1019B000069010020B90C8080590100309900809C2
:1019C00004901004089048090A90100507908809AF
:1019D000864610060390C809002584461007029029
:1019E0000020FF24AC4003460C4240D00124AC4010
:1019F000214201D00F2013460E9F274203D0F0272B
:101A000038430C9F3B43069F274204D00F273F02D9
:101A100038430B9F3B43059F274204D00F273F03CA
:101A20003843099F3B43049F274204D00F273F04BC
:101A30003843089F3B430A9F274204D00F273F05A6
:101A40003843079F3B437746274204D00F273F0682
:101A50003843039F3B436746274204D00F242407A3
:101A60002043029C2343346884431C43346008357C
:101A7000361D092DB4DB13B0F0BD0000202002405C
:101A800010B584B0002468460294FFF701FE0449B3
:101A90000298884201DD0348047004B010BD0000C4
:101AA00033334340D0000020F0B585B000200290D1
:101AB0002A4E2B4D6846FFF7EBFD2A4902982A4F24
:101AC000884201DA022003E02849884201DC012033
:101AD0003870274C2078042802D02078052809D1B6
:101AE00024482549FEF7C4FC054624482449FEF74E
:101AF000BFFC06461E480078224C002810D0012862
:101B000010D002280ED0387802281BD0012819D016
:101B10003146029802F0CAFF16D80320206001E087
:101B200000202060124840681749884208DA20687F
:101B3000002805DD2068042802DA20680D302060C6
:101B400005B0F0BD0C20E9E72946029802F0AEFF8F
:101B500001D80220E2E70120E0E7000033335340E0
:101B6000CDCC6C40CDCC2C40D0000020D7A3404041
:101B7000C00000206666660600000C40666666C609
:101B8000CCCC0840200000200000C84203498968EE
:101B9000014201D0012070470020704700800840BA
:101BA00004494A680123DB029A43C00202434A60A7
:101BB0007047000000800840F0B4084F7D6AFE6A5C
:101BC0003C6B85438E439443002B02D005430E4368
:101BD00014437D62FE623C63F0BC704700800840A5
:101BE00010B4054B9A6A07248440A24381400A43FB
:101BF0009A6210BC704700000080084010B50021B8
:101C0000802001230A4601F0D3FA10BDF0B58BB055
:101C100004A8FFF73DFD6846477F564C564E574D8A
:101C2000002F11D15649059888420DDD02F0CCFFF6
:101C30000121FFF797FA214602F0BAFF0446A842B5
:101C400002DCB4427EDB05E02C46002F02D00022ED
:101C500004981CE06846007F002801D0059815E034
:101C60002146049802F04CFF464F3946FFF75CF9D5
:101C700006462146384602F0A7FF059902F040FFCC
:101C80003946FFF751F9314602F0CAFE059A694616
:101C9000097F002907D000213B4B9A4205DD3B4BD1
:101CA00002241C700BE00499F6E7A94203DD374CCF
:101CB0000123237003E0354B1B78002B02D0334CFB
:101CC0000123E370324C0023A24209DAA14207DA71
:101CD0002E49CA78002A03D02E4A13600B70CB70AD
:101CE0002D4D02462C46FF345D34E06F803478265B
:101CF0003B212060241F20468038C36F2360836F00
:101D0000491E083CC3670029F5D12A602348039087
:101D10000024234800940290A0002F5800983946D0
:101D200002F07EFE00903946039801F0A6FE039073
:101D30003946029801F08EFE641C0290B442EBDB3F
:101D4000014600E013E0039802F06AFE009902F0F9
:101D50002FFF0446B01EFFF7F9F901462046FFF7B2
:101D6000E3F80A49C860012088700BB0F0BD344622
:101D700070E700000000B4420000A0400000A04254
:101D800000008C420000C8420000D242D400002073
:101D90000000484220000020240100200000FA44F6
:101DA0000000FAC430B587B00024684600F0E6FBB6
:101DB0007F250498AD02002805D001F0C3F82968FA
:101DC000814240D0FEE70120FFF7EAFE0820FFF73E
:101DD000DDFE01280AD0012001F0F0FD641C322C48
:101DE00031D00820FFF7D2FE0128F4D101F0AAF883
:101DF0000446284600F0B8FB002824D12146284696
:101E000000F00CFC00281ED12868A0421BD1012044
:101E100002220590811E04900C4868444160816054
:101E20000830521EFAD100F091FB684600F0C0FB6A
:101E3000002808D1BFF34F8F06490548C860BFF39B
:101E40004F8F00BFFDE707B030BD0000FCFFFFFF74
:101E50000400FA0500ED00E0F8B53E4DA9783E48D3
:101E6000002908D02978032931D004292FD0052949
:101E70002DD006292BD0102100F03CFC012001F0D0
:101E80009DFD2878052826D0C721344C204601F036
:101E9000BFFC2878052820D0287806281DD00021EE
:101EA000204601F048FC2878052804D02878062828
:101EB00001D00120A8702878294F2A4E03280ED07F
:101EC000042839D0052823D0062833D10CE010216E
:101ED00000F05FFCD2E72449D7E70121E0E768780A
:101EE000224980000C581BE02148C068FEF7F2FF31
:101EF000204A214B02F00CF80022204BFEF7C6FED0
:101F0000012300229B07FEF76DFCFEF7B1FA06E005
:101F10001B48007801280BD06420FFF71FF9044606
:101F2000B44209DCBC4205D2A878002806D006E0FD
:101F30001E20F2E70024F7E73446F5E7002468683E
:101F40003146FEF7F1FF214602F0DAFD01F036FAE4
:101F5000F8BD0000C000002000200B4000F006404B
:101F6000000080800000C842E7030000984C000099
:101F7000B00000209A99999999990340000048402F
:101F8000D000002005484168002906DD0278002ABB
:101F900003D000220270491E41607047C800002033
:101FA00070B50C4E00242146304601F0C4FBB51537
:101FB0002946304601F0BAFB074928010860BFF303
:101FC0004F8FBFF36F8F214600232A460846FFF745
:101FD000F3FD70BD00E0064080E100E010B5294C43
:101FE00084B0206800284AD100F09CFD402126489A
:101FF000FEF743F96846FFF74BFB3F2223A1224837
:10200000FEF70DF90298FFF73FF80A21FEF747F9AE
:1020100020A100F02DFD3F221FA11B48FEF7FFF875
:102020000298FFF731F80A21FEF739F908461BA19B
:1020300000F01EFD3F2218A11348FEF7F0F81849E2
:10204000029802F05DFD01F063FD0A21FEF727F919
:10205000084614A100F00CFD13480178022907D0AE
:102060000078002804D03F220BA10748FEF7D7F8DC
:102070003F220EA10448FEF7D2F80348206004B0C6
:1020800010BD000010000020E40000203132303389
:1020900030440000323000004400000033300000C3
:1020A0000000204131300000C00000204500000049
:1020B000F0B55C4E85B03068002874D16846FFF7F3
:1020C000E7FA59480178022904D00078002801D0A5
:1020D000012500E0002500F025FD40215348FEF7D2
:1020E000CCF8002D01D052A100E052A13F224F4870
:1020F000FEF795F83F2250A14C48FEF790F8504863
:10210000C468FF20C005C44206D3000244403F22F9
:102110004CA14648FEF783F83F2245A14348FEF70D
:102120007EF849492046FEF7FFFEFEF7ADFF47A1C6
:1021300000F09EFC3F223EA13C48FEF770F820468E
:10214000FEF7A2FF6421FEF7AAF808460A21FEF76F
:10215000A6F83CA100F08CFC3F2235A13348FEF7E5
:102160005EF8204601F0D4FC6421FEF798F808469A
:102170000A21FEF794F8084635A100F079FC3F22C9
:102180002BA12A48FEF74BF86846007B314C324FB2
:1021900000281BD10098A04206DB3F222F4923488C
:1021A000FEF73DF80DE03BE0B84205DB3F222C494D
:1021B0001E48FEF734F804E03F222A491B48FEF788
:1021C0002EF83F2228491948FEF729F86846407B37
:1021D00000281AD10198A04205DB3F221F4913486D
:1021E000FEF71DF80CE0B84205DB3F221C490F4802
:1021F000FEF715F804E03F221A490C48FEF70FF8E5
:102200003F2219490948FEF70AF8002D01D017A10D
:1022100000E017A13F220548FEF701F803483060AF
:1022200005B0F0BD10000020C0000020E400002038
:1022300044000000300000003233313030323000D2
:10224000D4000020333000000000C84232300000CB
:10225000313000000000704200004842B42200000B
:10226000C0220000C4220000C82200004445000033
:10227000450000000E4910B5884205DB3F220DA144
:102280000D48FDF7CCFF0DE00C49884205DB3F22ED
:102290000BA10948FDF7C3FF04E03F2209A106484E
:1022A000FDF7BDFF3F2208A10348FDF7B8FF10BDB1
:1022B0000000704232323200E40000200000484248
:1022C00033333300313131003030000010B5092094
:1022D00000F010F8002804D0092000F003F801F005
:1022E000D7F810BD012181400148416081607047ED
:1022F000404002400449496801228240114201D015
:102300000120704700207047404002400179027A66
:10231000C90712071143C28800681143024A8000AE
:102320008018016070470000004002400122054B08
:1023300082401868012902D090431860704710430A
:10234000FBE700004040024030B50024FF25013586
:10235000214685B001232A460846FFF72DFCFF21C0
:10236000E031684641800E490180047102940D4CB1
:1023700085816946204601F04FFA2946204601F042
:10238000D5F909492801086001222946204601F0B3
:10239000E1F90121204601F0CEF905B030BD000081
:1023A000D330000000E0064000E100E0F8B5002571
:1023B0002E4600F0B7FBFFF7F3FD2748FFF74BF978
:1023C000264C0021204601F0B6F90021204600F0FD
:1023D000B0FD01204004224A00232946FFF7ECFB10
:1023E000FF27204CF537012001F0E8FAA0688006AD
:1023F00002D4761CBE42F6DBBE420BD060680721D9
:1024000008436060FF20F430616BC943490702D084
:10241000401EF9D1F8BD0028FCD0616801204002BF
:1024200081436160A0688007FCD460680121890253
:1024300088436060A0684007FCD460680121C9023D
:1024400088436060A0680007FCD40748057030BF6F
:1024500001780029FCD0F8BD0000014000C0024016
:102460004102000100800840C000002070B5324BDE
:10247000002158681A151043586098684007FCD529
:1024800098693F2252059043986198690322120689
:1024900010439861586801256D02284358609C6874
:1024A000A007FCD55868C008C00058605C6BE20506
:1024B000FCD5012208465204104301240A46224357
:1024C00023061A432A432346FFF776FB01F060FAFE
:1024D000FFF73AFF194D0121284601F02CF901219F
:1024E000284600F026FD04211020FFF779FB144D4B
:1024F0000023042203212846FFF71AFA192128464F
:10250000FFF72AFA01212846FFF71FFA01220421CA
:102510002846FFF7F5F90B492002086001212846FB
:10252000FFF790F80848C178002901D0047070BD09
:102530000221017070BD00000080084000C0024010
:102540000000014000E100E0C000002000B50548A7
:10255000034901600821C16000F06CF800BD000073
:102560000000F01F0000084000B503490860082083
:10257000C86000F05FF800BD000008400B49CA6A5F
:10258000D243C2608A6AD24382604A6AD2434260BE
:102590000A6AD24302600A6BD207D217521C026148
:1025A000096B8907C917491C416170470000084041
:1025B000F8B505466969006949000843C04300262B
:1025C000032400901148A7003918E859C243104865
:1025D000016042600421C16000F02CF8E859C0435A
:1025E0008619641EEED50A4C0A4900982160606085
:1025F0000425E56000F01EF80098074930182160B6
:102600006060E56000F016F80020F8BD0000F01FE3
:10261000000008401000F01F2000F01F00B5044A21
:10262000106051600420D06000F004F800BD00008C
:102630000000084010B4134841690224214341615D
:1026400014210161104B01690907890F032902D088
:102650005B1E5A1CF7D181698269A243826188039B
:1026600002D510BC02207047880702D510BC01209B
:102670007047002B02D010BC0020704710BC032014
:102680007047000000000840FEFF0F0070B50446D0
:10269000407B00280AD0206811493C22C8601149BB
:1026A000486088600831521EFAD170BD207B002836
:1026B00001D06068F0E70C49206802F021FA0B4E67
:1026C0003146FEF731FC05460949606802F018FA08
:1026D0003146FEF729FC294602F0A2F9DCE70000AA
:1026E000D4000020200100200000B4420000C842B5
:1026F0000000204181627047002A026801D00A432D
:1027000000E08A4302607047012010B500040022F7
:1027100081100123FFF750FA0122540321460020C3
:10272000FFF73CF9054A9168D068A143A0432043D4
:102730009160D0605068A043506010BD00000B4015
:10274000F0B40025944602462B462E461027C807B3
:1027500006D070006446844025430324844023430C
:102760004908761C7F1EF2D1506998435061506928
:1027700028435061F0BC7047002A426801D00A43E8
:1027800000E08A4342607047C069084000D00120E1
:10279000704741627047000070B5FF240C4D013452
:1027A0002146284600F0D1FF002810D021462846B7
:1027B00000F0BCFF07480078002801D100F0BCF809
:1027C0000549012008700549087000F0FDFE70BD44
:1027D00000E006400100002000000020C8000020AA
:1027E00070B5FF240B4D01342146284600F0ADFFA3
:1027F00000280BD02146284600F098FF0648817833
:10280000002904D00021817000F01AFD70BD012163
:10281000F9E7000000F00640C00000200E4A1068F2
:1028200001252843106050690321084350610B4B78
:102830000B480C4C0168994202D20168491C00E027
:10284000002101600168A14201D2102600E00026AB
:102850002946B1405162EDE700200B407FA90300FB
:1028600004000020CFFB010030B585B00222012119
:102870000020FFF793F8022211460020FFF78EF8A0
:10288000022204210020FFF789F804211020FFF71D
:10289000A7F9264C0023042203212046FFF748F81D
:1028A00019212046FFF758F801212046FFF74DF87F
:1028B00000231A4619462046FFF72BF80122002371
:1028C00011462046FFF725F8022200231146204634
:1028D000FFF71FF8012204212046FFF711F81449E1
:1028E000A015086001212046FEF7ACFE114D002422
:1028F0006846FEF7CDFE002809D0641C032CF7DBE8
:102900006846007B002805D004202860FEE70620EA
:102910002860FEE76846407B002802D0052028603A
:10292000FEE76846FFF7B2FE05B030BD000001408B
:1029300000E100E02000002070B54A4C207800281B
:102940004FD06369224621695068474D926800263E
:102950008B4201D1824211D0824200D0A0606069D6
:10296000884201D06069206102212846FFF7C2FE3B
:1029700001212846FFF7BEFEE66006E00220205E49
:10298000002802DD6088401E2AE02069202801DA44
:10299000014600E000218A0034498A58002A20D0EC
:1029A000A268002A0BD0E068105C33283ED00EDC11
:1029B000302817D0312821D0322851D12AE02028C0
:1029C00000DB002080000858E168405CEDE7442807
:1029D00002D0452844D135E0E068401CE060082082
:1029E000608070BD02212846FFF784FE0121284641
:1029F000FFF780FEE068401CE06070BD02212846C1
:102A0000FFF7C7FE01212846FFF774FEE068401C6F
:102A1000E06070BD02212846FFF76CFE01212846C8
:102A2000FFF7B7FEE068401CE06070BD0221284659
:102A3000FFF7AFFE01212846FFF7ABFEE068401C20
:102A4000E06070BD02212846FFF754FE01212846B0
:102A5000FFF750FEA068002801D0666000E06661C4
:102A6000E66070BD0C00002000200B402400002018
:102A700000281EDDF8B5002501260F460446012872
:102A80000FDB3F220B48FDF7CAFB06E03F22394629
:102A90000848FDF7C4FB012D04D06D1C761CA6422E
:102AA000F4DDF8BD00253F2203A10248FDF7B7FB86
:102AB000F4E77047E40000203000000010B5012268
:102AC00002211046FEF76AFF144C01220221204623
:102AD000FFF712FE02212046FFF70CFE032202211F
:102AE0002046FFF72DFE012211461046FEF756FF45
:102AF000012211462046FFF7FFFD01212046FFF786
:102B0000F9FD032201212046FFF71AFE04480021A7
:102B1000C160016141610121017010BD00200B40C5
:102B20000C00002010B5064C02212046FFF7E2FD04
:102B300001212046FFF7DEFD02490020C86010BDDC
:102B400000200B400C00002030B5234985B0002048
:102B5000487001228A70214A4A6002220A70C870B5
:102B60001F49204A087069464A801F4A0A80087136
:102B7000FF2402901D4D01348C81284600F04CFE4C
:102B80002146284600F0D2FD1949E00008600122E4
:102B90002146284600F0DEFD012210211046FEF7F6
:102BA000FDFE144C012210212046FFF7A5FD102147
:102BB0002046FFF79FFD104C0D20206020680D2857
:102BC00005D1012000F0FAFE20680D28F9D001207F
:102BD00000F084FF05B030BDC00000200000C842F6
:102BE000D0000020BF120000E703000000F0064004
:102BF00000E100E000200B4020000020F8B501209B
:102C000000F06CFFB54C06462178B5480025B54F5D
:102C100007290AD20A007A441279921897440306C7
:102C20002B7CA8FBF200FFF7C1FBF8BD0068002871
:102C300001DC2570F8BD042E06D0002E0FDC00F05C
:102C40003BFF00280BD106E002202070E570A6486B
:102C50000A210160F8BD00F023FF002808D0A24837
:102C60000168002902D001680160F8BD0921FBE775
:102C7000FFF788F9F8BD0068002800DC257000F037
:102C800015FF002801D0FFF7A9F900F03BFF00284D
:102C900001D0FFF70DFA93480078022803D093483B
:102CA0000078002802D0FEF7EBFEF8BD032E01D11C
:102CB000052020708E4F3878002807D000F002FFE2
:102CC0000028F2D1002EF0D13D70F8BD00F0FAFEE0
:102CD000002807D0012038708648F8600620207050
:102CE0007D70F8BD012E09D0022E0FD0042EBFD169
:102CF0000120E0707C490B220A608AE003202070EA
:102D0000784800780128ECD16570F8BD75480078E6
:102D10000128ADD004207CE000F0C8FE002801D0DE
:102D2000FFF75CF900F0EEFE002801D0FFF7C0F9D4
:102D30006E480078002807D002212170022808D0B0
:102D40000821694801603D7000F0BCFE00282CD1CC
:102D500001E00721F5E73878022826D0032E2AD093
:102D600001282AD0012E2AD0022ECED10420207094
:102D700000F09CFE002801D0FFF730F900F0C2FE01
:102D8000002801D0FFF794F958480078002807D0B0
:102D900002212170022822D00821534801603D7091
:102DA00000F090FE002827D11BE04F48056002206C
:102DB00020703D70DCE70520D9E76570D8E74E4903
:102DC0004E4A6078042802D26078401C00E000205F
:102DD00060706078800008589042F2D0C8E7072100
:102DE000DBE73878022807D001280DD0012E0FD05C
:102DF000032E8AD105200CE03B480560022020709C
:102E00003D70F8BD2EE006E0032020706570F8BD2F
:102E100003202070F8BD00F049FE002801D0FFF724
:102E2000DDF800F06FFE002801D0FFF741F92F48D0
:102E30000178002907D002202070022910D0082133
:102E4000294801603D7000F03DFE0028D4D138785B
:102E50000228D1D0012EDBD0022E00D15AE7F8BDD6
:102E60000721EDE700F022FE002801D0FFF7B6F8B9
:102E700000F048FE002801D0FFF71AF91C4800783E
:102E8000002805D000F018FE002801D11848057070
:102E900016480078002807D00221217002281BD094
:102EA0000821114801603D70002E02DC38780228AC
:102EB000D5D10D480560022020700D493D700120DC
:102EC000087000F0F9FD0028C9D000F033FB00F0D5
:102ED000F3FD0028F9D1F8BD0721E2E7C00000208A
:102EE000CC000020D000002020000020D4000020D2
:102EF000B00000200AD7233C984C0000000080BF9F
:102F000010B4036F102213404A7E8C6812021A43D9
:102F10000B7E1B0613430A6814434A681A43144382
:102F20000B69CA6849691A4321430A43026710BC06
:102F3000704710220029016F01D0114300E0914336
:102F400001677047F8B5002601256D03324601235D
:102F500011462846FEF730FE154C2046FEF74EFE81
:102F60006660E6202060134F002120460B68C36096
:102F70004B68C3600831B942F8DB0F490A69D24394
:102F8000C2604A69D243C2608A69D243C260C969D9
:102F9000C943C1608468FEF731FE284632462843A3
:102FA00000231146FEF708FE04486040F8BD00000B
:102FB00000A00840FFFB010000030840DD531A3564
:102FC00070470000F0B53A4C83B02078052862D0F5
:102FD000207804285FD02078032802D16078042864
:102FE00059D00020334D00266A782946C968002A46
:102FF00053D0314A914200DC6E706A78104203D19E
:10300000AE602E486E6043E02D4801F0DDFD00907B
:10301000A87800280ED02B49009801F071FDA9680E
:1030200001F0FEFC2849A86088423CDC2749884220
:103030003BD8AE701F484168009801F0C5FDFDF710
:1030400049FF234A234BFDF721FE0746194801910A
:103050008068FDF73FFF204A204BFDF717FE05462D
:103060000E460098FDF736FF1D4A1E4BFDF70EFE7B
:103070002A463346FDF7B6FB3A46019BFDF7B2FB05
:10308000FDF7F6F90B4A00995160174901F0C8FCA9
:10309000606003B0F0BD0120A4E7144A9142ACDBAC
:1030A00001226A70A9E7084800E00848A860C0E764
:1030B000C0000020D4000020000034420000C842BC
:1030C000000048428988083E000020410000AAC252
:1030D000666666666666D63F85EB51B81E85EB3F31
:1030E000D7A3703D0AD7D33F0000B442000070421E
:1030F00030B591B022486946088600244C8608A95C
:103100000C75FF20013069460E9488871D4D0CA96F
:10311000284600F081FB69460C700620488001209B
:1031200008714C718C71CC710C7248724C818C811D
:10313000284600F017FB012000050590049420208C
:10314000099006940794089408A90C724C7204A97B
:103150002846FFF7D5FE0422140321460020FEF77F
:103160001DFC012221460848FFF7C6FA0121284626
:1031700000F0E1FA01212846FFF7DBFE11B030BD77
:103180005F09000000C0024000000B4005480649EE
:103190008A68272A03D0401EFAD1012070470020F8
:1031A00070470000FF356E0100A106407047000027
:1031B000F0B4084F7D68BE68FC6885438E43944335
:1031C000002B02D005430E4314437D60BE60FC60BB
:1031D000F0BC70470081084008480421816000214C
:1031E0004160016181680522114381600168002905
:1031F000FCD103498160C0687047000000A0064010
:10320000040F000030B40C48036B4022016B1340E4
:103210001143016309498D680424A5438D608D68BD
:1032200025438D6081688906FCD5002B02D1016B96
:103230009143016330BC70470080084000A0064005
:10324000F8B5294E3078062847D1284C2078002838
:1032500043D100F031FCA1787F250127ED0588429C
:1032600008D0A070002801D0277105E06078784070
:10327000607019E0002917D060781D490028E068C7
:1032800006D00122D205904207DB01F09DFC03E04D
:10329000A84202DA01F0C4FBE060FF21C905C84280
:1032A0001ED2A84200DDE560207900280AD0E0683F
:1032B0004100090E01D0A84204D100202071B07055
:1032C0001920E0700B480078012801D10A48E0601D
:1032D000E078002802D0401EE070F8BDB770F8BD5D
:1032E0000020E060E0E70000C0000020B000002007
:1032F0000AD7A33BD00000200AD7233C70B5144C5A
:103300002078032820D11348007801281CD000F031
:10331000C7FB1149002818D08A68002A0ED10F4B2C
:103320000F4D6078002802D06078401E00E0042035
:103330006070607880001858A842F2D0052A01DA3F
:10334000521C00E000228A6070BD0020886070BDC1
:10335000C0000020D0000020B0000020984C0000E9
:10336000000080BF70470000042204490428086957
:1033700002D09043086170471043FBE700E000E093
:103380000749002806D00128086906D040084000F7
:103390000861704700208861704701221043F7E7F9
:1033A00000E000E0044902220028086901D010432F
:1033B00000E090430861704700E000E070B504460B
:1033C0000E4E01250E48ED05B4420ADAAC4207DB89
:1033D0000146204601F094FB3146FDF7A5FD00E0D3
:1033E0000020FDF777FE07490861AC4201DB0121AF
:1033F00000E000210448FFF79CFD70BD0000C842BA
:103400000000164580C0024000C0024070B5002494
:103410000120032184B08004890301232246FEF7A2
:10342000CBFB0122550229460020FEF7B7FA154EC4
:10343000002229463046FFF75FF90122294630462F
:10344000FFF79AF900210920FEF792FA092000906F
:103450000121684601710521C18004210172FEF736
:1034600055FF01210920FEF761FF07494020086050
:10347000064844704480047144718471C47104B07E
:1034800070BD000000000B4000E100E0A80000203B
:1034900070B522480078002801D1FEF7E7FF2049E7
:1034A000502008600D2000F089FA012149021D48D2
:1034B000FFF76AF91C4C80231C4900280AD000221F
:1034C000227008780A7044061948640E0578002DA9
:1034D00014D10AE0012020704878000600D54B7016
:1034E0000878000600D40B7070BD4579002D05D119
:1034F000C579002D02D18579002D04D0C271827169
:103500004271027070BD042CFCD20222825E0A2A33
:1035100001DA521C42804B7070BD0000C0000020D8
:10352000CC00002000000B40A4000020A5000020DB
:10353000A800002030B42148214B057801225C7896
:1035400000202049002D2DD0240601D580245C7058
:103550001C78842C24D102240C5F002C19DD5870B7
:103560000871488008704870012C07D04871022CFF
:1035700008D00D468871032C09D005E04A710D462C
:10358000887101E00D468A710022EA7107E001228C
:10359000FBE7488088714871C8714A700A701870DA
:1035A00030BC7047822CFBD158700B78002B02D0B6
:1035B000087030BC70470A7130BC7047A40000200E
:1035C000A5000020A80000200F4800230278110663
:1035D000002909DA5106490E042900D2491CD209F2
:1035E000D2010A43027000E003704278110609D547
:1035F0005106490E022900D2491CD209D2010A43C0
:103600004270704743707047A50000200349087856
:10361000002801D0401E08707047000008000020FC
:10362000F0B43C491020C8603B4A012010603B4880
:10363000016B40252943016339498B68272BFCD155
:103640004B68384C9B0503D44C604B689B05FBD5FD
:103650004B689E050023002E03DA4B604E68B605CA
:10366000FBD41360416A0322920291434162416894
:103670000122D202114341608168C908C907FBD009
:103680004168C908C900C91C4160416B4907490F1D
:103690000329FAD1244A1168C908C900491C1160DC
:1036A00003624168A143416001689615314301609E
:1036B000416817153943416081688908C907FBD003
:1036C000016BA94301630168B1430160032109064D
:1036D000816141682143416081684908C907FBD085
:1036E0001168C908C900891C116003624168C908D2
:1036F000C900491C4160416B4907490F0129FAD1B2
:103700001068102108431060106809020843106017
:10371000F0BC7047008108400083084000800840EA
:1037200000A106400002000000020840C943C16732
:10373000BFF34F8F70470029016902D00122114366
:1037400001E04908490001617047C06F084000D09E
:1037500001207047002A426F01D00A4300E08A43EB
:1037600042677047F0B50C78284EA20013181D462A
:103770001A46A0339C469035630640321C0EAE4676
:10378000B04203D10323A340DD4302E00123A34061
:10379000DD431E4B066D2E400665466D2E40984259
:1037A0008B790FD1CF797F003B43A34033434365EF
:1037B000C66E0B7A2E404D7A6D002B43A3403343E7
:1037C000C36602E0A340334343651368FF25083511
:1037D000AB43136013684D882B4313604B897246CB
:1037E00013608B8962461360084A904208D10A79B7
:1037F000497949000A43016DA2400A430265F0BDC0
:10380000026D0979A1400A430265F0BD00C0024083
:10381000803081607047000010B402460B8880320F
:1038200093604B885360036803242404A34303601C
:10383000036801242406A343036003688C682343C0
:103840000360044B984201D10B79D3608989816769
:1038500010BC704700C002404900CA020243100079
:1038600000D004204A0D01D001221043044A490D22
:10387000914201D102210843012800D1052070475F
:10388000FF070000F8B504464F1EC800083821188D
:1038900015461E46086849683A4606239A4310D0E2
:1038A0002A463346FDF7F2F93A46D200083AA31801
:1038B0001A687F1E5B68FCF795FF06223B46934320
:1038C000EED1022F23D0042F11D0062F2FD12A465C
:1038D0003346FDF7DBF9E36AA26AFCF783FF2A4669
:1038E0003346FDF7D3F9636A226AFCF77BFF2A4669
:1038F0003346FDF7CBF9E369A269FCF773FF2A466B
:103900003346FDF7C3F963692269FCF76BFF2A466A
:103910003346FDF7BBF9E368A268FCF763FF2A466C
:103920003346FDF7B3F963682268FCF75BFFF8BD27
:10393000002210B5134610460149FCF783FF10BD65
:103940000000F03F10B50122FDF766FC10BD10B578
:10395000FCF748FF10BD002210B513461046114673
:10396000FCF770FF10BD000010B50721024A0020CF
:103970000907FDF751FC10BD01030000034A10B513
:1039800000201107FDF748FC10BD000001FDFFFFFE
:1039900010B50420C043FFF7E7FC0020FFF702FD4D
:1039A0000120C043FFF7ECFC0020FFF7E9FC0020FA
:1039B0000149087010BD0000080000200146104AAF
:1039C0004A43104B5A6100229A611A461269012338
:1039D0001A430C4B1A6100BF0A4A1069C207D20F82
:1039E000002A04D0012212040240002AF4D0054A21
:1039F000126952085200034B1A6100229A61704703
:103A00007017000000E000E0014672B606224A434B
:103A10000F4B5A6100229A611A46126901231A4318
:103A20000B4B1A6100BF0A4A1069C207D20F002A65
:103A300004D0012212040240002AF4D0044A126980
:103A400052085200024B1A6100229A6162B6704716
:103A500000E000E070B50C460546FDF70DFC000FD8
:103A6000022806D06000FF214008C905081AC00FCF
:103A700001D0284670BD204670BD70B50C46054685
:103A8000FDF7FAFB000F082806D06000FF21400870
:103A9000C905081AC00F01D0284670BD204670BD68
:103AA0000148407970470000A80000200148807953
:103AB00070470000A800002001480078704700000F
:103AC000A800002004484178002903D0002141705B
:103AD0000120704700207047A800002008490246D6
:103AE0000878002801D00020704708790028FBD012
:103AF0000220085E002AF7D000220A714A8070472F
:103B0000A80000200148C07970470000A8000020EC
:103B100070B50546FDF7B8FA0446FDF717FB2946D0
:103B200001F046F8044900F0EBFF0449884201DB4C
:103B3000601C70BD204670BD000020410000A04008
:103B4000F0B5C54A00248FB091420ADA4B005B08F9
:103B5000934206D801254A006D05EA4205D10028A6
:103B600003D0FFF7EFFE0FB0F0BD01252D05A942F0
:103B700019DA034308D0002910DA0120FDF719FBF8
:103B8000FFF7E9FE0FB0F0BD0220FDF712FBFFF7D3
:103B9000CFFE0122D20751400FB0F0BD3524E443DF
:103BA0003622FDF739FB0A15AC4B1219D4180A035B
:103BB000120BAB49AB4B56182E40314659401143BE
:103BC0000192321512190B920022FCF718FE019A8D
:103BD0000446921C1003A44E000B0D467E4403289D
:103BE00060D220467368326800F0B4FE1CD10B9896
:103BF000002815D0FDF704FB04460E469B4A9C4B5B
:103C0000FDF744F80D4607469A4A9B4B204631463D
:103C1000FDF73CF83A462B46FCF7E4FD0FB0F0BD4B
:103C2000716830680FB0F0BD944A954B2046294624
:103C3000FDF72CF80022934BFCF7ECFD06460F46EF
:103C400022462B4610461946FDF720F832463B46E1
:103C5000FDF71CF806460B980F4600281DD0FDF70F
:103C6000CFFA824A824B05910490FDF70FF8324655
:103C70003B46FCF7CFFD22462B46FCF7C0FD044631
:103C80000D467C4A7C4B05990498FCF7FFFF2246C1
:103C90002B46FCF7B4FD0FB0F0BD0B463246204674
:103CA0002946C4E0012300229B072046FCF79AFD29
:103CB00002460B4620462946FCF7C4FD06460F4641
:103CC0000B98FDF79DFA32463B460591049010464D
:103CD0001946FCF7DBFF09910C906B490198099B91
:103CE000421800920C9A19461046FCF7CFFF024684
:103CF00007910A90654901980B1A654801930321C1
:103D00007844079BFFF7BEFD079B0A9AFCF7BEFFAE
:103D10000E905F480D9104217844079B0A9AFFF7A3
:103D2000B1FD099B0C9AFCF7B1FF019B009A1A4365
:103D300000920D9B0E9AFCF755FD009A01910C9094
:103D4000002A4DDD0022D24320462946FDF764FAC1
:103D500022462B46FCF79AFF00910A900B98002808
:103D60002BD0424A424B05990498FCF78FFF0791EC
:103D70000E90019B0C9A00990A98FCF733FD32468D
:103D80003B46FCF783FF079B0E9AFCF72BFD009B3D
:103D90000A9AFCF73FFD22462B46FCF730FD04460D
:103DA0000D46344A344B05990498FCF76FFF2246C0
:103DB0002B46FCF724FD0FB0F0BD019B0C9A0A982E
:103DC000FCF710FD32463B46FCF760FF009B0A9A69
:103DD000FCF720FD22462B46FCF71CFD0FB0F0BD82
:103DE0000B98002827D0214A214B05990498FCF70D
:103DF0004DFF0791009020462946019B0C9AFCF745
:103E0000FEFC32463B46FCF741FF079B009AFCF75D
:103E1000F6FC22462B46FCF7F2FC04460D46154AFA
:103E2000154B05990498FCF731FF22462B46FCF709
:103E3000E6FC0FB0F0BD0B46204629460C9AFCF775
:103E4000DEFC32463B46FCF721FF22462B46FCF7C0
:103E5000E1FC0FB0F0BD00000000F07F01FCFFFFAF
:103E6000645F09000000F03F50120000763C793595
:103E7000EF39EA3D0000E0FE422EE63F555555552C
:103E80005555D53F0000E03F86EBF9FF51B80600DD
:103E90006C100000032000040126002581101A4A3E
:103EA0003346FDF789FEFFF771F90028FBD1FFF7D4
:103EB000A9F9FFF791F9FFF76BFDFEF725FCFDF778
:103EC00071FFFEF741FAFEF7F9FDFEF7CDFCFFF7B3
:103ED0009DFAFFF70DF9FEF737FE0C4C6670FFF701
:103EE00029FBFDF7E1FDFEF789FEFFF76BF8FDF713
:103EF000B3FF20780028F2D0FDF788FEFEF71CFD06
:103F0000FFF7FCF92570EAE74102000100000020FC
:103F1000F0B51FB496B084460C460246199D189819
:103F20000390490068006300490840080193002A93
:103F300001D0012600E000269E19FE4BF6185B100A
:103F40009E422BD36E00039F0296002F00D00127C4
:103F5000F719F84EF84BBE199E421FD3039E034635
:103F6000F64F334309D03B469C4201D1002A04D08E
:103F7000019B002A05D0012604E0002039461BB031
:103F8000F0BD00269E19EE4B9E4207D8039F029E6D
:103F9000002F00D00127F6199E4207D92B46604614
:103FA0002146189AFFF7D3FC1BB0F0BD0023002C6C
:103FB00029DAE44EB04226DAE34EB04201DB0223B6
:103FC00021E0DE4EB0421EDBE04E070DBE19142E7E
:103FD00009DD3427BF1B039EFE400196BE40039FB0
:103FE000BE420BD00FE0039F002F0CD11427BF1B44
:103FF0000646FE400196BE40864204D1019BDE0784
:10400000F60F02239B1B0E46164318D1002D16DA1D
:10401000002C03D0022B01D0012B06D00220FDF78B
:10402000C8F8FFF785FC1BB0F0BD0220FDF7C1F812
:10403000FFF77EFC0122D20751401BB0F0BD039E6A
:10404000002E61D1BF4EB04220D1C148844201D17F
:10405000002A08D0B948814209DB002D10DB1898EE
:1040600029461BB0F0BD0020B4491BB0F0BD002DA7
:1040700006DA01222946D207189851401BB0F0BD3C
:10408000B4497944086849681BB0F0BDAB4FB842E9
:1040900025D1002D1FDA002904D0B14212D1002A07
:1040A00009D018E0002A72D1A649E20F0020D207F9
:1040B00011431BB0F0BD0020E20F0146D2071143AF
:1040C0001BB0F0BDB14206DA234600203946FCF7AA
:1040D000B9FB1BB0F0BD104621461BB0F0BDB1428C
:1040E00012DA0126B607B54203D123461046194617
:1040F000FEE3994EB54207D1261E05DB1046314638
:1041000000F004FC1BB0F0BD67007F081646002AD3
:1041100040D100290AD08B4A914229D1002C0EDDD2
:10412000002D1CDB002011461BB0F0BD022B16D069
:10413000002C14D0012B12D1002C14DB0FE0002C2A
:1041400028DA002D09DB012B03D000207D491BB0AC
:10415000F0BD002081491BB0F0BD012B03D0002031
:1041600001461BB0F0BD00200121C9071BB0F0BD06
:10417000724A91420ED1002C01DA002B17D0022B8B
:1041800006D00020C043FDF73BF81BB0F0BD90E225
:104190000120F8E7E217521C94461A4307D0002288
:1041A0000892664C62465B1E1A4307D009E0012064
:1041B000FCF7FFFFFFF7CFFB1BB0F0BD0022644C04
:1041C0000892674A90427DDD664B674A98421FDD40
:1041D000914202DC002D05DB4DE05848814217DB9F
:1041E000002D48DD0220FCF7E4FFFFF7BDFB05468C
:1041F0000E460022534B21460898FCF747FD08461F
:1042000071004908C00FC007014328461BB0F0BD2C
:10421000914215DA002D2EDA0220FCF7CAFFFFF7D3
:10422000A3FB05460E460022464B21460898FCF7A4
:104230002DFD72005208C80FC0070243114617E057
:104240003E4B994223DD002D15DD0220FCF7B1FF26
:10425000FFF78AFB05460E4600223A4B2146089896
:10426000FCF714FD084671004908C00FC007014360
:1042700028461BB0F0BD0220FCF79BFFFFF77EFB3A
:1042800049004908E20FD20711431BB0F0BD0022DC
:1042900030463946FCF7B3FA012205460E46D243B2
:1042A000FCF7BAFF314A324BFCF7B4FA2A463346E0
:1042B000FCF7ECFC0022284BFCF7ACFA07462A4638
:1042C000334600E064E0039110461946FCF7DEFC3B
:1042D0003A46039BFCF7DAFC074603220991520792
:1042E000244B28463146FCF7D1FC07910C90224A1A
:1042F000204B38460999FCF7C9FC074601911F4A33
:104300001F4B28463146FCF7C1FC3A46019BFCF79F
:1043100076FA07460B460246099107990C98FCF776
:1043200061FA00250E462846079B0C9AFCF767FAAF
:104330003A4627E0FFFF1F00FFFF0F000000F03F9D
:104340000000E0FF0000F07F0000404301FCFFFFA1
:104350000000F0BFAA0D00000000E03F0000F0FFE9
:104360000000E0410000F043FFFFEF3F5555555579
:104370005555D53F4715F73FFE822B6544DF5DF865
:104380000BAE543E099BFCF745FA02460B4652E140
:10439000012500202D05A94207DA3522304639468D
:1043A000FCF73AFF06463420C0430A151218FE48AF
:1043B000101803900803FD49000B01430F46FC4908
:1043C000884201DC002003E0FA49884202DA012039
:1043D000119005E0002011900398401C7F1B039072
:1043E00011980597C200F4480F92784480184368EA
:1043F0000268394630460D930292FCF700FA0791A5
:104400000C9030460D9B029A0599FCF7EBF9024699
:104410000B460020E549FCF715FA09910490079B2B
:104420000C9AFCF733FC129000201090E3480D46E4
:10443000784400680E9001217810490708431199CB
:104440000D9B890440180121C90447183946029A76
:104450000E98FCF7D4F93246059BFCF7DBF90246CF
:104460000B4629461098FCF711FC064602913B4684
:1044700029460E9A1098FCF709FC079B0C9AFCF74A
:10448000C9F93246029BFCF7BAF9099B049AFCF77A
:10449000FDFB0591129A0A902B4610461946FCF72F
:1044A000F5FB06460246C6480F460B4606217844F1
:1044B000FFF7E8F932463B46009104901046194652
:1044C000FCF7E4FB009B049AFCF7E0FB06460F4672
:1044D0002B461946129A1098FCF784F9059B0A9A04
:1044E000FCF7D4FB32463B46FCF77CF9109A079167
:1044F00004902B4610461946FCF7C8FBB14E00222B
:10450000334609910290FCF76DF9079B049AFCF77A
:1045100069F900200746024633460091FCF76FF91F
:10452000099B029AFCF76BF9079B049AFCF772F956
:1045300006460D913A462946009B1098FCF7A6FBCB
:1045400007910C902B463046129A0D99FCF79EFB72
:1045500005460E463A46009B05990A98FCF796FBDD
:1045600033462A46FCF73EF902460B4607460991B8
:1045700007990C98FCF736F900250E462846079B4C
:104580000C9AFCF73CF93A46099BFCF743F90746BD
:104590000722099152078C4B31462846FCF776FBDF
:1045A00007910090894A884B38460999FCF76EFBC1
:1045B00007460191864A874B31462846FCF766FB41
:1045C0003A46019BFCF70EF9834B7B440F9A9B18EC
:1045D0001A685B68FCF706F9029009910398FCF7EA
:1045E0000FFE05910490099B029A07990098FCF729
:1045F000F9F87A4B7B440F9A9B181A685B68174648
:104600000393FCF7EFF8059B049AFCF7EBF80E46D2
:104610002846059B049AFCF7F2F83A46039BFCF700
:10462000EEF8079B009AFCF7EAF8099B029AFCF760
:10463000F1F802460B46199900200C900F46189885
:10464000FCF724FB029104903B460C9A19991898A8
:10465000FCF7D5F82A463346FCF718FB029B049A70
:10466000FCF7C0F809910E902A46334639460C985B
:10467000FCF70CFB06460F46099B0E9AFCF7B2F8B6
:10468000574A0D46914220DB5242AA18024310D1EC
:1046900032463B46FCF7B3F804900391514A524B23
:1046A00009990E98FCF79EF8039B049A00F084F990
:1046B0001ED20220FCF77DFDFFF756F9490049089C
:1046C000E20FD20711431BB0F0BD6A00474B5208FE
:1046D0009A420DD3464AAA18024300D0CBE532468F
:1046E0003B46FCF78CF8099B0E9A00F065F9F5D96A
:1046F0006800002340082C490393020D3D4B5218DB
:10470000984223DD01200005521CD0404219500080
:10471000400D401838497944096813468C4637499A
:10472000C1408B4312030121120B090551181422B9
:10473000101AC1400391002D01DA484203906246ED
:1047400030463946FCF75BF806460F4632463B4694
:1047500009990E98FCF746F800252A46284B28466A
:104760000591FCF793FA07910C90264A264B2846B0
:104770000599FCF78BFA0091029032463B46284699
:104780000599FCF73CF8099B0E9AFCF743F81F4A81
:104790001F4BFCF77BFA009B029AFCF723F80746B5
:1047A0000B460246099135E001FCFFFF0000F03F97
:1047B0008E9803007AB60B00BA090000FC090000CD
:1047C000260900000000084009C7EE3FFD033ADC5F
:1047D000F5015B14E02F3EBEFA070000C0070000A1
:1047E00000009040FE822B654715973C00CC90401E
:1047F00000346F3F0000E03F16070000FFFF0F008E
:10480000432EE63F396CA80C615C20BEEF39FAFEFE
:10481000422EE63F07990C98FBF7E4FF05460E464B
:10482000079B0C9AFBF7EBFF3A46099BFBF7F2FF5D
:1048300009912A4633460E9010461946FCF726FA8F
:10484000074602462F480B46059105217844FFF79D
:1048500019F83A46059BFCF719FA2A463346FBF746
:10486000D9FF0746019128463146099B0E9AFCF76D
:104870000DFA099B0E9AFBF7B5FF012304910C90EA
:1048800000229B0738460199FBF7B9FF05910E906E
:104890003A4628463146019BFCF7F8F9059B0E9AEB
:1048A000FBF7D0FF049B0C9AFBF7A9FF2A4633467F
:1048B000FBF7A5FF0022144BFBF7ACFF064603985D
:1048C0000D46000541190915002912DC304629461C
:1048D000039AFCF7A1FCFEF7BFFF042801D1FFF704
:1048E0004DF830462946039AFCF796FC064601E04F
:1048F00004E029180B46324621460898FCF7C6F911
:104900001BB0F0BDB80500000000F03FF8B506464A
:104910000C46FCF79FFD051E0F4600D00120014309
:1049200049000B484908411AC90F0DD0002E01D08B
:10493000012100E000210C4361004908401AC00F2A
:1049400002D10120FCF735FC28463946F8BD0000AD
:104950000000F07F70B501250C002D051C4310D41C
:10496000EC4206D4AC420AD4994200D070BD9042C9
:1049700070BDE94217D4EB4215D4994270BD89420B
:1049800070BDEC4206D5AC42F9D58B4200D070BD6B
:10499000824270BD6D004C00EC4204D25C00EC42DF
:1049A00001D28B4270BD034C30B4FCF70BFD30BC20
:1049B00070BD00BF1900120470B501251C002D0543
:1049C0000C4310D4EC4206D4AC420AD48B4200D043
:1049D00070BD824270BDEB4217D4E94215D48B42C0
:1049E00070BD9B4270BDEC4206D5AC42F9D59942F0
:1049F00000D070BD904270BD6D005C00EC4204D2EE
:104A00004C00EC4201D2994270BD0FB4034C0CBC77
:104A100003BC30B4FCF7D6FC30BC70BD19001604E2
:104A200070B501250400ED074C4020D4441A01D292
:104A3000001B0919C60D4B00F2B2FF2A29D01B0E2C
:104A40002CD000020C02D31A2C43DC402843051959
:104A500010D2280A02D3401C6D0611D0761EF6052E
:104A60008019FF2A00DA70BDC00DC00570BD694015
:104A700000F0B0F801200543C541521C761CE8E760
:104A800064089C40C90161408900E7D10124A0432A
:104A9000E4E71B0E440200D0034870BD002AFCD19D
:104AA000C00FC00770BD00BF0000C07F012302001F
:104AB000DB050A430DD4DA4203D49A4207D4884274
:104AC0007047D84214D4D94212D4884270478042E9
:104AD0007047DA4203D59A42F9D5814270475B00AC
:104AE0004200DA4204D24A00DA4201D281427047DF
:104AF00010B5024AFCF718FC10BD00BF09001604EF
:104B000070B5420064414B005C41120E39D01B0E5F
:104B100038D0FF2A3CD0FF2B3AD040024902400A4D
:104B2000490A060045184E43000A090AD2184843AC
:104B3000ED017F3A0104731A4019190C4318990FBB
:104B400004D001215B0849075B1A521CD80904D321
:104B5000401CF50301D19D0607D0FF2A08D2D505D8
:104B600006D0E4072043401970BD0125A843F4E7AF
:104B7000002A01DCE00770BD2402FF202043C005AD
:104B800070BD1B0EFF2A03D0FF2B01D0E00770BDC4
:104B9000FF2645003606B54206D84D00B54203D87B
:104BA000D218FF2A00D0E7E7004870BD0000C07FA0
:104BB00070B50125ED07684004004C4002D56940FE
:104BC00000F008F8FFF732FF70B501250400ED078B
:104BD0004C4022D4441A02D26C40001B0919C60D65
:104BE0004B00F2B2FF2A4BD01B0E50D000020C0239
:104BF000D31A2C43DC40A843051B05D5AD0019D3BF
:104C00006D08761E521E37D0F605280A01D280198B
:104C100070BD70416D0603D070BD6940FFF706FF9F
:104C20009C4009026140490001D0401E70BD012432
:104C3000A04370BD6D081DD001202B0C01D12D04A7
:104C400010302B0E01D12D0208302B0F01D12D0178
:104C5000001DAB0F01D1AD00801CEB0F01D16D0029
:104C6000401C6D00361A121A680AF5054019012A0F
:104C700002DB70BD002070BDC036300AC00770BDB9
:104C80001B0E440201D1FF2B00D1024870BD002A47
:104C9000F0D070BD0000C07F000000400000A040C8
:104CA000000020410000C8410000484280807F7E13
:104CB0007D7C7B7A79787776767574737271717092
:104CC0006F6E6E6D6C6C6B6A6A6968686766666544
:104CD0006464636362616160605F5F5E5E5D5D5CD2
:104CE0005C5B5B5A5A595958585757565655555543
:104CF0005454535352525251515050504F4F4F4EA3
:104D00004E4D4D4D4C4C4C4B4B4B4A4A4A494949F0
:104D10004848484747474746464645454544444432
:104D2000444343434342424242414141818283845E
:104D300085868788898B8C8D8E8F91929395969797
:104D4000999A9C9D9FA0A2A3A5A7A8AAACAEB0B219
:104D5000B3B5B7B9BCBEC0C2C5C7C9CCCED1D4D714
:104D6000D9DCDFE2E6E9ECF0F3F7FAFE0000000040
:104D700004FA97999999D93FAF788E1DC571CC3FA8
:104D80009FC678D0099AC33F935555555555E53F71
:104D9000599322942449D23FDE03CB966446C73F01
:104DA00044523EDF12F1C23F000000000000F03F1D
:104DB000000000000000F83F0000000000000000BC
:104DC0000000004003B8E23F0000000000000000C7
:104DD00006D0CF43EBFD4C3E033333333333E33F55
:104DE000FFAB6FDBB66DDB3F4D268F515555D53F81
:104DF00001411DA96074D13F65DBC9934A86CD3F4F
:104E0000EF4E454A287ECA3F3E5555555555C53F3C
:104E100093BDBE166CC166BF2CDE25AF6A56113F2E
:104E2000F16BD2C541BDBBBED0A4BE726937663E30
:104E30000000000000000000303000003144443029
:104E400031303131310000003131310032444430F1
:104E500032303232320000003232320033444430D9
:104E600033303333330000003333330032443044C3
:104E700032443044000000003230443130313030B0
:104E8000313044444400000032303230443130315B
:104E9000304444440000000032304431303130446A
:104EA0004444000032303230443130444444000045
:104EB0003230443130444444000000003232323158
:104EC000313130450000000032323333313130307F
:104ED00030303231304500003131313232323045FC
:104EE0000000000032303230323044450000000013
:104EF000104F000000000020E4000000C00100008E
:104F0000F44F0000E4000020840E0000DC010000EB
:104F10000000000000000000000000000000000091
:104F20000000000000000000000000000000000081
:104F300000000000384E0000484E0000684E00009F
:104F4000584E0000B04E0000984E0000784E000011
:104F5000A44E0000884E0000E44E0000BC4E00004D
:104F6000D84E00006C4E0000C84E00003C4E0000C1
:104F70005C4E00004C4E00000000000000000000ED
:104F80000000000000000000000000000000000021
:104F90000000000000000000000000000000000011
:104FA0000000000000000000000000000000000001
:104FB00000000000000000000000000000000000F1
:104FC00000000000000000000000000000000000E1
:104FD0000000000000000000000000005000000081
:104FE00000000000000000000000000000000000C1
:044FF00000000000BD
:040000050000017D79
:00000001FF
